{
	"data": {
		"bytecode": {
			"linkReferences": {},
			"object": "6101006040526305f5e0ff60809081525034801561001c57600080fd5b503073ffffffffffffffffffffffffffffffffffffffff1660a08173ffffffffffffffffffffffffffffffffffffffff1660601b815250504360c0818152505061006a61007660201b60201c565b60e08181525050610085565b6000806101bc90508091505090565b60805160a05160601c60c05160e0516104b96100c1600039600061020a015260006101e1015260006102900152600061026c01526104b96000f3fe608060405234801561001057600080fd5b50600436106100935760003560e01c80634310c4ce116100665780634310c4ce14610110578063858e04031461012e578063ed7ff8751461014c578063f15130211461016a578063f8a8fd6d1461018857610093565b80631d8ac8bc146100985780631d9afdd2146100b65780632314d48c146100d45780634064572e146100f2575b600080fd5b6100a06101a6565b6040516100ad919061038e565b60405180910390f35b6100be6101df565b6040516100cb91906103b0565b60405180910390f35b6100dc610203565b6040516100e991906103b0565b60405180910390f35b6100fa610208565b60405161010791906103b0565b60405180910390f35b61011861022c565b604051610125919061036c565b60405180910390f35b610136610265565b6040516101439190610351565b60405180910390f35b61015461026a565b60405161016191906103b0565b60405180910390f35b61017261028e565b60405161017f9190610351565b60405180910390f35b6101906102b2565b60405161019d91906103b0565b60405180910390f35b6040518060400160405280600481526020017f307841410000000000000000000000000000000000000000000000000000000081525081565b7f000000000000000000000000000000000000000000000000000000000000000081565b600a81565b7f000000000000000000000000000000000000000000000000000000000000000081565b6040518060400160405280600381526020017f575446000000000000000000000000000000000000000000000000000000000081525081565b600081565b7f000000000000000000000000000000000000000000000000000000000000000081565b7f000000000000000000000000000000000000000000000000000000000000000081565b6000806101bc90508091505090565b6102ca81610403565b82525050565b60006102db826103cb565b6102e581856103e1565b93506102f581856020860161043f565b6102fe81610472565b840191505092915050565b6000610314826103d6565b61031e81856103f2565b935061032e81856020860161043f565b61033781610472565b840191505092915050565b61034b81610435565b82525050565b600060208201905061036660008301846102c1565b92915050565b6000602082019050818103600083015261038681846102d0565b905092915050565b600060208201905081810360008301526103a88184610309565b905092915050565b60006020820190506103c56000830184610342565b92915050565b600081519050919050565b600081519050919050565b600082825260208201905092915050565b600082825260208201905092915050565b600061040e82610415565b9050919050565b600073ffffffffffffffffffffffffffffffffffffffff82169050919050565b6000819050919050565b60005b8381101561045d578082015181840152602081019050610442565b8381111561046c576000848401525b50505050565b6000601f19601f830116905091905056fea2646970667358221220ddf49a2bd15d74c6dfdfc0cf13c2e905bfbb6b9161266d3496063e4841e3741964736f6c63430008070033",
			"opcodes": "PUSH2 0x100 PUSH1 0x40 MSTORE PUSH4 0x5F5E0FF PUSH1 0x80 SWAP1 DUP2 MSTORE POP CALLVALUE DUP1 ISZERO PUSH2 0x1C JUMPI PUSH1 0x0 DUP1 REVERT JUMPDEST POP ADDRESS PUSH20 0xFFFFFFFFFFFFFFFFFFFFFFFFFFFFFFFFFFFFFFFF AND PUSH1 0xA0 DUP2 PUSH20 0xFFFFFFFFFFFFFFFFFFFFFFFFFFFFFFFFFFFFFFFF AND PUSH1 0x60 SHL DUP2 MSTORE POP POP NUMBER PUSH1 0xC0 DUP2 DUP2 MSTORE POP POP PUSH2 0x6A PUSH2 0x76 PUSH1 0x20 SHL PUSH1 0x20 SHR JUMP JUMPDEST PUSH1 0xE0 DUP2 DUP2 MSTORE POP POP PUSH2 0x85 JUMP JUMPDEST PUSH1 0x0 DUP1 PUSH2 0x1BC SWAP1 POP DUP1 SWAP2 POP POP SWAP1 JUMP JUMPDEST PUSH1 0x80 MLOAD PUSH1 0xA0 MLOAD PUSH1 0x60 SHR PUSH1 0xC0 MLOAD PUSH1 0xE0 MLOAD PUSH2 0x4B9 PUSH2 0xC1 PUSH1 0x0 CODECOPY PUSH1 0x0 PUSH2 0x20A ADD MSTORE PUSH1 0x0 PUSH2 0x1E1 ADD MSTORE PUSH1 0x0 PUSH2 0x290 ADD MSTORE PUSH1 0x0 PUSH2 0x26C ADD MSTORE PUSH2 0x4B9 PUSH1 0x0 RETURN INVALID PUSH1 0x80 PUSH1 0x40 MSTORE CALLVALUE DUP1 ISZERO PUSH2 0x10 JUMPI PUSH1 0x0 DUP1 REVERT JUMPDEST POP PUSH1 0x4 CALLDATASIZE LT PUSH2 0x93 JUMPI PUSH1 0x0 CALLDATALOAD PUSH1 0xE0 SHR DUP1 PUSH4 0x4310C4CE GT PUSH2 0x66 JUMPI DUP1 PUSH4 0x4310C4CE EQ PUSH2 0x110 JUMPI DUP1 PUSH4 0x858E0403 EQ PUSH2 0x12E JUMPI DUP1 PUSH4 0xED7FF875 EQ PUSH2 0x14C JUMPI DUP1 PUSH4 0xF1513021 EQ PUSH2 0x16A JUMPI DUP1 PUSH4 0xF8A8FD6D EQ PUSH2 0x188 JUMPI PUSH2 0x93 JUMP JUMPDEST DUP1 PUSH4 0x1D8AC8BC EQ PUSH2 0x98 JUMPI DUP1 PUSH4 0x1D9AFDD2 EQ PUSH2 0xB6 JUMPI DUP1 PUSH4 0x2314D48C EQ PUSH2 0xD4 JUMPI DUP1 PUSH4 0x4064572E EQ PUSH2 0xF2 JUMPI JUMPDEST PUSH1 0x0 DUP1 REVERT JUMPDEST PUSH2 0xA0 PUSH2 0x1A6 JUMP JUMPDEST PUSH1 0x40 MLOAD PUSH2 0xAD SWAP2 SWAP1 PUSH2 0x38E JUMP JUMPDEST PUSH1 0x40 MLOAD DUP1 SWAP2 SUB SWAP1 RETURN JUMPDEST PUSH2 0xBE PUSH2 0x1DF JUMP JUMPDEST PUSH1 0x40 MLOAD PUSH2 0xCB SWAP2 SWAP1 PUSH2 0x3B0 JUMP JUMPDEST PUSH1 0x40 MLOAD DUP1 SWAP2 SUB SWAP1 RETURN JUMPDEST PUSH2 0xDC PUSH2 0x203 JUMP JUMPDEST PUSH1 0x40 MLOAD PUSH2 0xE9 SWAP2 SWAP1 PUSH2 0x3B0 JUMP JUMPDEST PUSH1 0x40 MLOAD DUP1 SWAP2 SUB SWAP1 RETURN JUMPDEST PUSH2 0xFA PUSH2 0x208 JUMP JUMPDEST PUSH1 0x40 MLOAD PUSH2 0x107 SWAP2 SWAP1 PUSH2 0x3B0 JUMP JUMPDEST PUSH1 0x40 MLOAD DUP1 SWAP2 SUB SWAP1 RETURN JUMPDEST PUSH2 0x118 PUSH2 0x22C JUMP JUMPDEST PUSH1 0x40 MLOAD PUSH2 0x125 SWAP2 SWAP1 PUSH2 0x36C JUMP JUMPDEST PUSH1 0x40 MLOAD DUP1 SWAP2 SUB SWAP1 RETURN JUMPDEST PUSH2 0x136 PUSH2 0x265 JUMP JUMPDEST PUSH1 0x40 MLOAD PUSH2 0x143 SWAP2 SWAP1 PUSH2 0x351 JUMP JUMPDEST PUSH1 0x40 MLOAD DUP1 SWAP2 SUB SWAP1 RETURN JUMPDEST PUSH2 0x154 PUSH2 0x26A JUMP JUMPDEST PUSH1 0x40 MLOAD PUSH2 0x161 SWAP2 SWAP1 PUSH2 0x3B0 JUMP JUMPDEST PUSH1 0x40 MLOAD DUP1 SWAP2 SUB SWAP1 RETURN JUMPDEST PUSH2 0x172 PUSH2 0x28E JUMP JUMPDEST PUSH1 0x40 MLOAD PUSH2 0x17F SWAP2 SWAP1 PUSH2 0x351 JUMP JUMPDEST PUSH1 0x40 MLOAD DUP1 SWAP2 SUB SWAP1 RETURN JUMPDEST PUSH2 0x190 PUSH2 0x2B2 JUMP JUMPDEST PUSH1 0x40 MLOAD PUSH2 0x19D SWAP2 SWAP1 PUSH2 0x3B0 JUMP JUMPDEST PUSH1 0x40 MLOAD DUP1 SWAP2 SUB SWAP1 RETURN JUMPDEST PUSH1 0x40 MLOAD DUP1 PUSH1 0x40 ADD PUSH1 0x40 MSTORE DUP1 PUSH1 0x4 DUP2 MSTORE PUSH1 0x20 ADD PUSH32 0x3078414100000000000000000000000000000000000000000000000000000000 DUP2 MSTORE POP DUP2 JUMP JUMPDEST PUSH32 0x0 DUP2 JUMP JUMPDEST PUSH1 0xA DUP2 JUMP JUMPDEST PUSH32 0x0 DUP2 JUMP JUMPDEST PUSH1 0x40 MLOAD DUP1 PUSH1 0x40 ADD PUSH1 0x40 MSTORE DUP1 PUSH1 0x3 DUP2 MSTORE PUSH1 0x20 ADD PUSH32 0x5754460000000000000000000000000000000000000000000000000000000000 DUP2 MSTORE POP DUP2 JUMP JUMPDEST PUSH1 0x0 DUP2 JUMP JUMPDEST PUSH32 0x0 DUP2 JUMP JUMPDEST PUSH32 0x0 DUP2 JUMP JUMPDEST PUSH1 0x0 DUP1 PUSH2 0x1BC SWAP1 POP DUP1 SWAP2 POP POP SWAP1 JUMP JUMPDEST PUSH2 0x2CA DUP2 PUSH2 0x403 JUMP JUMPDEST DUP3 MSTORE POP POP JUMP JUMPDEST PUSH1 0x0 PUSH2 0x2DB DUP3 PUSH2 0x3CB JUMP JUMPDEST PUSH2 0x2E5 DUP2 DUP6 PUSH2 0x3E1 JUMP JUMPDEST SWAP4 POP PUSH2 0x2F5 DUP2 DUP6 PUSH1 0x20 DUP7 ADD PUSH2 0x43F JUMP JUMPDEST PUSH2 0x2FE DUP2 PUSH2 0x472 JUMP JUMPDEST DUP5 ADD SWAP2 POP POP SWAP3 SWAP2 POP POP JUMP JUMPDEST PUSH1 0x0 PUSH2 0x314 DUP3 PUSH2 0x3D6 JUMP JUMPDEST PUSH2 0x31E DUP2 DUP6 PUSH2 0x3F2 JUMP JUMPDEST SWAP4 POP PUSH2 0x32E DUP2 DUP6 PUSH1 0x20 DUP7 ADD PUSH2 0x43F JUMP JUMPDEST PUSH2 0x337 DUP2 PUSH2 0x472 JUMP JUMPDEST DUP5 ADD SWAP2 POP POP SWAP3 SWAP2 POP POP JUMP JUMPDEST PUSH2 0x34B DUP2 PUSH2 0x435 JUMP JUMPDEST DUP3 MSTORE POP POP JUMP JUMPDEST PUSH1 0x0 PUSH1 0x20 DUP3 ADD SWAP1 POP PUSH2 0x366 PUSH1 0x0 DUP4 ADD DUP5 PUSH2 0x2C1 JUMP JUMPDEST SWAP3 SWAP2 POP POP JUMP JUMPDEST PUSH1 0x0 PUSH1 0x20 DUP3 ADD SWAP1 POP DUP2 DUP2 SUB PUSH1 0x0 DUP4 ADD MSTORE PUSH2 0x386 DUP2 DUP5 PUSH2 0x2D0 JUMP JUMPDEST SWAP1 POP SWAP3 SWAP2 POP POP JUMP JUMPDEST PUSH1 0x0 PUSH1 0x20 DUP3 ADD SWAP1 POP DUP2 DUP2 SUB PUSH1 0x0 DUP4 ADD MSTORE PUSH2 0x3A8 DUP2 DUP5 PUSH2 0x309 JUMP JUMPDEST SWAP1 POP SWAP3 SWAP2 POP POP JUMP JUMPDEST PUSH1 0x0 PUSH1 0x20 DUP3 ADD SWAP1 POP PUSH2 0x3C5 PUSH1 0x0 DUP4 ADD DUP5 PUSH2 0x342 JUMP JUMPDEST SWAP3 SWAP2 POP POP JUMP JUMPDEST PUSH1 0x0 DUP2 MLOAD SWAP1 POP SWAP2 SWAP1 POP JUMP JUMPDEST PUSH1 0x0 DUP2 MLOAD SWAP1 POP SWAP2 SWAP1 POP JUMP JUMPDEST PUSH1 0x0 DUP3 DUP3 MSTORE PUSH1 0x20 DUP3 ADD SWAP1 POP SWAP3 SWAP2 POP POP JUMP JUMPDEST PUSH1 0x0 DUP3 DUP3 MSTORE PUSH1 0x20 DUP3 ADD SWAP1 POP SWAP3 SWAP2 POP POP JUMP JUMPDEST PUSH1 0x0 PUSH2 0x40E DUP3 PUSH2 0x415 JUMP JUMPDEST SWAP1 POP SWAP2 SWAP1 POP JUMP JUMPDEST PUSH1 0x0 PUSH20 0xFFFFFFFFFFFFFFFFFFFFFFFFFFFFFFFFFFFFFFFF DUP3 AND SWAP1 POP SWAP2 SWAP1 POP JUMP JUMPDEST PUSH1 0x0 DUP2 SWAP1 POP SWAP2 SWAP1 POP JUMP JUMPDEST PUSH1 0x0 JUMPDEST DUP4 DUP2 LT ISZERO PUSH2 0x45D JUMPI DUP1 DUP3 ADD MLOAD DUP2 DUP5 ADD MSTORE PUSH1 0x20 DUP2 ADD SWAP1 POP PUSH2 0x442 JUMP JUMPDEST DUP4 DUP2 GT ISZERO PUSH2 0x46C JUMPI PUSH1 0x0 DUP5 DUP5 ADD MSTORE JUMPDEST POP POP POP POP JUMP JUMPDEST PUSH1 0x0 PUSH1 0x1F NOT PUSH1 0x1F DUP4 ADD AND SWAP1 POP SWAP2 SWAP1 POP JUMP INVALID LOG2 PUSH5 0x6970667358 0x22 SLT KECCAK256 0xDD DELEGATECALL SWAP11 0x2B 0xD1 0x5D PUSH21 0xC6DFDFC0CF13C2E905BFBB6B9161266D3496063E48 COINBASE 0xE3 PUSH21 0x1964736F6C63430008070033000000000000000000 "
		},
		"gasEstimates": {
			"creation": {
				"codeDepositCost": "241800",
				"executionCost": "infinite",
				"totalCost": "infinite"
			},
			"external": {
				"CONSTANT_ADDRESS()": "400",
				"CONSTANT_BYYES()": "infinite",
				"CONSTANT_NUM()": "374",
				"CONSTANT_SRING()": "infinite",
				"IMMUTABLE_ADDRESS()": "infinite",
				"IMMUTABLE_BLOCK()": "infinite",
				"IMMUTABLE_NUM()": "infinite",
				"IMMUTABLE_TEST()": "infinite",
				"test()": "438"
			}
		},
		"methodIdentifiers": {
			"CONSTANT_ADDRESS()": "858e0403",
			"CONSTANT_BYYES()": "4310c4ce",
			"CONSTANT_NUM()": "2314d48c",
			"CONSTANT_SRING()": "1d8ac8bc",
			"IMMUTABLE_ADDRESS()": "f1513021",
			"IMMUTABLE_BLOCK()": "1d9afdd2",
			"IMMUTABLE_NUM()": "ed7ff875",
			"IMMUTABLE_TEST()": "4064572e",
			"test()": "f8a8fd6d"
		}
	},
	"abi": [
		{
			"inputs": [],
			"stateMutability": "nonpayable",
			"type": "constructor"
		},
		{
			"inputs": [],
			"name": "CONSTANT_ADDRESS",
			"outputs": [
				{
					"internalType": "address",
					"name": "",
					"type": "address"
				}
			],
			"stateMutability": "view",
			"type": "function"
		},
		{
			"inputs": [],
			"name": "CONSTANT_BYYES",
			"outputs": [
				{
					"internalType": "bytes",
					"name": "",
					"type": "bytes"
				}
			],
			"stateMutability": "view",
			"type": "function"
		},
		{
			"inputs": [],
			"name": "CONSTANT_NUM",
			"outputs": [
				{
					"internalType": "uint256",
					"name": "",
					"type": "uint256"
				}
			],
			"stateMutability": "view",
			"type": "function"
		},
		{
			"inputs": [],
			"name": "CONSTANT_SRING",
			"outputs": [
				{
					"internalType": "string",
					"name": "",
					"type": "string"
				}
			],
			"stateMutability": "view",
			"type": "function"
		},
		{
			"inputs": [],
			"name": "IMMUTABLE_ADDRESS",
			"outputs": [
				{
					"internalType": "address",
					"name": "",
					"type": "address"
				}
			],
			"stateMutability": "view",
			"type": "function"
		},
		{
			"inputs": [],
			"name": "IMMUTABLE_BLOCK",
			"outputs": [
				{
					"internalType": "uint256",
					"name": "",
					"type": "uint256"
				}
			],
			"stateMutability": "view",
			"type": "function"
		},
		{
			"inputs": [],
			"name": "IMMUTABLE_NUM",
			"outputs": [
				{
					"internalType": "uint256",
					"name": "",
					"type": "uint256"
				}
			],
			"stateMutability": "view",
			"type": "function"
		},
		{
			"inputs": [],
			"name": "IMMUTABLE_TEST",
			"outputs": [
				{
					"internalType": "uint256",
					"name": "",
					"type": "uint256"
				}
			],
			"stateMutability": "view",
			"type": "function"
		},
		{
			"inputs": [],
			"name": "test",
			"outputs": [
				{
					"internalType": "uint256",
					"name": "",
					"type": "uint256"
				}
			],
			"stateMutability": "pure",
			"type": "function"
		}
	]
}